:100000000C945D000C94DE020C94B7020C948500F5
:100010000C9485000C9485000C9485000C9485004C
:100020000C9485000C9485000C9485000C9485003C
:100030000C9485000C9485000C9485000C9485002C
:100040000C9415020C9485000C9485020C945F02AC
:100050000C9485000C9485000C9485000C9485000C
:100060000C9485000C94850000000008000201003B
:100070000003040700000000000000000000000072
:10008000250028002B0000000000240027002A0083
:10009000040404040404040402020202020203032E
:1000A0000303030301020408102040800102040836
:1000B00010200102040810201F0411241FBECFEFDE
:1000C000D8E0DEBFCDBF21E0A6E1B1E001C01D92C6
:1000D000A33CB207E1F711E0A0E0B1E0E8EAF8E004
:1000E00002C005900D92A631B107D9F710E0CDE519
:1000F000D0E004C02197FE010E944C04CC35D1070A
:10010000C9F70E9405030C9452040C94000090E07F
:10011000FC01EC55FF4F249180579F4FFC018491C7
:10012000882399F090E0880F991FFC01EA57FF4F50
:10013000A591B491FC01E458FF4F859194918FB73C
:10014000F894EC91E22BEC938FBF0895AF92BF929D
:10015000CF92DF92EF92FF920F931F93CF93DF9393
:100160006C017B018B01040F151FEB015E01AE18C2
:10017000BF08C017D10759F06991D601ED91FC91E4
:100180000190F081E02DC6010995892B79F7C50111
:10019000DF91CF911F910F91FF90EF90DF90CF9063
:1001A000BF90AF900895FC01538D448D252F30E012
:1001B000842F90E0821B930B541710F0CF96089574
:1001C00001970895FC01918D828D981761F0A28DA1
:1001D000AE0FBF2FB11D5D968C91928D9F5F9F7367
:1001E000928F90E008958FEF9FEF0895FC01918D1D
:1001F000828D981731F0828DE80FF11D858D90E08A
:1002000008958FEF9FEF0895FC01918D228D892F26
:1002100090E0805C9F4F821B91098F73992708950E
:100220008DE191E00E94040121E0892B09F420E096
:10023000822F089580E090E0892B29F00E94100120
:1002400081110C9400000895FC01A48DA80FB92F12
:10025000B11DA35ABF4F2C91848D90E001968F73EE
:100260009927848FA689B7892C93A089B1898C910D
:10027000837080648C93938D848D981306C002885C
:10028000F389E02D80818F7D80830895EF92FF9226
:100290000F931F93CF93DF93EC0181E0888F9B8DA9
:1002A0008C8D98131AC0E889F989808185FF15C063
:1002B0009FB7F894EE89FF896083E889F989808186
:1002C0008370806480839FBF81E090E0DF91CF9155
:1002D0001F910F91FF90EF900895F62E0B8D10E077
:1002E0000F5F1F4F0F731127E02E8C8D8E110CC0E6
:1002F0000FB607FCFACFE889F989808185FFF5CF31
:10030000CE010E942401F1CFEB8DEC0FFD2FF11DEA
:10031000E35AFF4FF0829FB7F8940B8FEA89FB896D
:1003200080818062CFCFCF93DF93EC01888D8823CB
:10033000B9F0AA89BB89E889F9898C9185FD03C048
:10034000808186FD0DC00FB607FCF7CF8C9185FF2D
:10035000F2CF808185FFEDCFCE010E942401E9CF4D
:10036000DF91CF91089590E0FC01E859FF4F24916F
:10037000FC01EC55FF4F3491FC01E057FF4FE49135
:10038000EE23C9F0222339F0233001F1A8F4213003
:1003900019F1223029F1F0E0EE0FFF1FE458FF4F72
:1003A000A591B4918FB7F894EC91611126C0309566
:1003B0003E233C938FBF08952730A9F02830C9F021
:1003C000243049F7809180008F7D03C080918000A8
:1003D0008F7780938000DFCF84B58F7784BDDBCFAC
:1003E00084B58F7DFBCF8091B0008F778093B00074
:1003F000D2CF8091B0008F7DF9CF3E2BDACF209104
:1004000016013091170181E090E0232B11F090E06C
:1004100080E090931701809316016091160170910E
:1004200017018DE00C94B30108951F920F920FB63F
:100430000F9211242F933F938F939F93AF93BF936A
:100440008091BF019091C001A091C101B091C20102
:100450003091BE0123E0230F2D3758F50196A11DE1
:10046000B11D2093BE018093BF019093C001A09362
:10047000C101B093C2018091BA019091BB01A091DA
:10048000BC01B091BD010196A11DB11D8093BA01BF
:100490009093BB01A093BC01B093BD01BF91AF91FC
:1004A0009F918F913F912F910F900FBE0F901F90B2
:1004B000189526E8230F0296A11DB11DD2CF1F92D9
:1004C0000F920FB60F9211242F933F934F935F9388
:1004D0006F937F938F939F93AF93BF93EF93FF930C
:1004E0008DE191E00E942401FF91EF91BF91AF91C6
:1004F0009F918F917F916F915F914F913F912F913C
:100500000F900FBE0F901F9018951F920F920FB66D
:100510000F9211242F938F939F93EF93FF93E0916A
:100520002D01F0912E018081E0913301F091340191
:1005300082FD1BC09081809136018F5F8F73209167
:100540003701821741F0E0913601F0E0E35EFE4FA3
:10055000958F80933601FF91EF919F918F912F910D
:100560000F900FBE0F901F9018958081F4CF1F92AF
:100570000F920FB60F9211242F933F934F935F93D7
:100580006F937F938F939F93AF93BF93EF93FF935B
:10059000E0910201F09103010995FF91EF91BF9164
:1005A000AF919F918F917F916F915F914F913F910B
:1005B0002F910F900FBE0F901F9018951F920F92C2
:1005C0000FB60F9211242F933F934F935F936F9326
:1005D0007F938F939F93AF93BF93EF93FF93E0919C
:1005E0000001F09101010995FF91EF91BF91AF9149
:1005F0009F918F917F916F915F914F913F912F913B
:100600000F900FBE0F901F901895789484B582605C
:1006100084BD84B5816084BD85B5826085BD85B5A6
:10062000816085BD80916E00816080936E00109224
:10063000810080918100826080938100809181009F
:100640008160809381008091800081608093800030
:100650008091B10084608093B1008091B00081608E
:100660008093B00080917A00846080937A008091BA
:100670007A00826080937A0080917A008160809312
:100680007A0080917A00806880937A001092C1008D
:100690008CE00E9487008BE00E9487008AE00E9425
:1006A000870089E00E94870088E00E9487008DE033
:1006B0000E9487008FEF91E09093010180930001E9
:1006C000809169008C7F816080936900E89AE09155
:1006D0002D01F0912E0182E08083E0912901F091BB
:1006E0002A011082E0912B01F0912C018FEC808384
:1006F00010923501E0913101F091320186E0808362
:10070000E0912F01F0913001808180618083E09140
:100710002F01F0913001808188608083E0912F016A
:10072000F0913001808180688083E0912F01F09109
:10073000300180818F7D80830DE111E080E0E82E23
:1007400080E0F82EC8E1D1E02FB7F8948091BF0186
:100750009091C001A091C101B091C2012FBF8093BF
:10076000250190932601A0932701B09328018DE1E4
:1007700091E00E94E20097FF5CC02FB7F89480914F
:10078000BF019091C001A091C101B091C2012FBFE2
:100790004091250150912601609127017091280117
:1007A000841B950BA60BB70B4091210150912201A0
:1007B000609123017091240184179507A607B7075C
:1007C000B0F26091180188E00E94B30160911901B4
:1007D00089E00E94B30160911A018AE00E94B3018E
:1007E00060911B018BE00E94B30160911C018CE0C1
:1007F0000E94B30160911601709117018DE00E9473
:10080000B30161E08EE00E94B30160911601709126
:1008100017018DE191E00E944601E114F10409F411
:1008200091CF0E941001882309F48CCF0E94000010
:1008300089CF89930C171D0709F086CFC2CFEDE150
:10084000F1E01382128288EE93E0A0E0B0E08483AE
:100850009583A683B78388E091E09183808385ECBC
:1008600090E09587848784EC90E09787868780EC7A
:1008700090E0918B808B81EC90E0938B828B82EC6B
:1008800090E0958B848B86EC90E0978B868B118E15
:10089000128E138E148E0895EE0FFF1F0590F491A3
:0808A000E02D0994F894FFCF4C
:1008A80014021402000000004601A600D3009301C0
:0608B8000401E200F6005D
:00000001FF
