:100000000C945E000C949B060C9474060C94860071
:100010000C9486000C9486000C9486000C94860048
:100020000C9486000C9486000C9486000C94860038
:100030000C9486000C9486000C9486000C94860028
:100040000C942A060C9486000C94F8050C94D205A6
:100050000C9486000C9486000C9486000C94860008
:100060000C94C2060C9486000000000023002600B9
:10007000290000000000250028002B0004040404CF
:100080000404040402020202020203030303030342
:10009000010204081020408001020408102001021F
:1000A00004081020000000080002010000030407FB
:1000B0000000000000000000E107830911241FBEBA
:1000C000CFEFD8E0DEBFCDBF22E0ACE3B1E001C0AE
:1000D0001D92A63CB207E1F711E0A0E0B1E0E0E933
:1000E000F7E102C005900D92AC33B107D9F710E0EB
:1000F000CDE5D0E004C02197FE010E94C309CC35B4
:10010000D107C9F70E9438080C94BB0B0C9400006F
:100110000895CF93DF93AC01E091B301F091B40166
:100120003097F1F09091B2018091B1019817C0F031
:1001300090E0292F30E02617370754F4D901A05C4E
:10014000BE4F240F351FE90128812C939F5FF1CF0B
:100150001092B2016093B101CB01DF91CF9109946C
:10016000DF91CF910895AF92BF92CF92DF92EF923D
:10017000FF920F931F93CF93DF936C017B018B0151
:10018000040F151FEB015E01AE18BF08C017D107A1
:1001900059F06991D601ED91FC910190F081E02D2B
:1001A000C6010995892B79F7C501DF91CF911F9180
:1001B0000F91FF90EF90DF90CF90BF90AF90089598
:1001C000FC01538D448D252F30E0842F90E0821B5D
:1001D000930B541710F0CF96089501970895FC01E2
:1001E000918D828D981761F0A28DAE0FBF2FB11D3A
:1001F0005D968C91928D9F5F9F73928F90E0089592
:100200008FEF9FEF0895FC01918D828D981731F04B
:10021000828DE80FF11D858D90E008958FEF9FEF9F
:100220000895FC01918D228D892F90E0805C9F4F75
:10023000821B91098F739927089587E092E00E94AD
:10024000110121E0892B09F420E0822F089580E03C
:1002500090E0892B29F00E941D0181110C9400006F
:100260000895FC01A48DA80FB92FB11DA35ABF4F4B
:100270002C91848D90E001968F739927848FA689A5
:10028000B7892C93A089B1898C91837080648C93F9
:10029000938D848D981306C00288F389E02D8081A8
:1002A0008F7D80830895EF92FF920F931F93CF93DA
:1002B000DF93EC0181E0888F9B8D8C8D98131AC0A1
:1002C000E889F989808185FF15C09FB7F894EE8988
:1002D000FF896083E889F9898081837080648083E5
:1002E0009FBF81E090E0DF91CF911F910F91FF9030
:1002F000EF900895F62E0B8D10E00F5F1F4F0F73D8
:100300001127E02E8C8D8E110CC00FB607FCFACF92
:10031000E889F989808185FFF5CFCE010E943101FE
:10032000F1CFEB8DEC0FFD2FF11DE35AFF4FF08263
:100330009FB7F8940B8FEA89FB8980818062CFCFC9
:10034000CF93DF93EC01888D8823B9F0AA89BB890C
:10035000E889F9898C9185FD03C0808186FD0DC0F7
:100360000FB607FCF7CF8C9185FFF2CF808185FF18
:10037000EDCFCE010E943101E9CFDF91CF910895F9
:10038000833081F028F4813099F08230A9F008950B
:100390008730A9F08830C9F08430B1F480918000B2
:1003A0008F7D03C0809180008F77809380000895B7
:1003B00084B58F7784BD089584B58F7DFBCF809100
:1003C000B0008F778093B00008958091B0008F7D4A
:1003D000F9CF1F93CF93DF93282F30E0F901EC552D
:1003E000FF4F8491F901E057FF4FD491F901E45890
:1003F000FF4FC491CC23A9F0162F81110E94C00198
:10040000EC2FF0E0EE0FFF1FEE58FF4FA591B491D7
:100410008FB7F894EC91111108C0D095DE23DC93CE
:100420008FBFDF91CF911F910895DE2BF8CF3FB79B
:10043000F8948091A9019091AA01A091AB01B0918B
:10044000AC0126B5A89B05C02F3F19F00196A11D50
:10045000B11D3FBFBA2FA92F982F8827BC01CD010E
:10046000620F711D811D911D42E0660F771F881F6D
:10047000991F4A95D1F708958F929F92AF92BF929C
:10048000CF92DF92EF92FF924B015C010E94170224
:100490006B017C010E9417026C197D098E099F096E
:1004A000683E734081059105A8F321E0821A910806
:1004B000A108B10888EEC80E83E0D81EE11CF11C2B
:1004C00081149104A104B10429F7FF90EF90DF900B
:1004D000CF90BF90AF909F908F900895089508950A
:1004E00020918101260F3327331F21323105ECF48F
:1004F0002091DD01FC0190E080E0243069F082E091
:100500000895A09181012191AC014F595E4FA40F34
:10051000B52FB11D2C930196861798F38091810118
:10052000680F6093810180E0089581E00895109242
:10053000DD0181E08093DC011092B70161E082E18E
:100540000E94E90161E083E10E94E901E9EBF0E04A
:1005500080818E7F808380818D7F808388E48093FB
:10056000B80085E48093BC000895CF93DF9391E0B9
:10057000909360018823B9F0C091B800D091BA007F
:100580008091BC008A7B8093BC0060E082E10E9485
:10059000E90160E083E10E94E9010E949702D093A3
:1005A000BA00C093B800DF91CF910895CF92DF9247
:1005B000EF92FF920F931F93CF93DF93D091060298
:1005C00081E0D13208F09CC0C09105020E94170260
:1005D0006B017C018091DD0181116CC082E0809310
:1005E000DD0181E08093DC018FEF8093DB011092CD
:1005F000DA01D093D901A5EEB1E0E9EBF1E080E0BA
:10060000D8138DC01092B8018091B801CC0FC82BBF
:10061000C093B8018091B701813009F084C0109275
:10062000B7010E9417026B017C018091B801809391
:10063000BB008091DF019091E001A091E101B091B8
:10064000E201892B8A2B8B2BA1F00E9417020091CB
:10065000DF011091E0012091E1013091E2016C197C
:100660007D098E099F09061717072807390708F41F
:1006700042C08091BC0083FDD8CF85EC8093BC0044
:100680000E9417026B017C018091DD01823009F428
:100690004CC08091DB018F3F09F469C08091DB0180
:1006A000803209F466C08091DB01803309F463C0B5
:1006B00084E026C08091DF019091E001A091E101EA
:1006C000B091E201892B8A2B8B2B09F483CF0E94F6
:1006D00017020091DF011091E0012091E1013091BA
:1006E000E2016C197D098E099F0906171707280773
:1006F000390708F06FCF8091DE010E94B50285E0D6
:100700001092E401109206021092E301DF91CF9162
:100710001F910F91FF90EF90DF90CF9008959D91E2
:1007200091938F5F6DCF85EEA9CF8091DF0190917E
:10073000E001A091E101B091E201892B8A2B8B2B82
:1007400009F4A2CF0E9417020091DF011091E0018D
:100750002091E1013091E2016C197D098E099F0918
:10076000061717072807390708F08ECFC4CF80E097
:10077000C7CF82E0C5CF83E0C3CF0895E091B20137
:100780008091B101E81730F4F0E0E05CFE4F808129
:1007900090E008958FEF9FEF08959091B2018091BE
:1007A000B1012FEF3FEF981748F4E92FF0E0E05C3C
:1007B000FE4F208130E09F5F9093B201C901089500
:1007C0008091B1019091B201891B990B0895CF924C
:1007D000DF92EF92FF920F931F93CF93DF937C01F1
:1007E000CB018A012091E301222389F0EB016B0107
:1007F000C40ED51ECC15DD0569F06991D701ED91C8
:10080000FC910190F081E02DC7010995F3CF642F91
:100810000E947002C801DF91CF911F910F91FF904C
:10082000EF90DF90CF900895CF93DF931F92CDB7D5
:10083000DEB769832091E3012223F9F020910602BB
:10084000203258F021E030E0FC013383228390E035
:1008500080E00F90DF91CF9108958091E401E82F1F
:10086000F0E0EB51FE4F998190838F5F8093E4011C
:100870008093060281E090E0ECCF61E0CE0101962A
:100880000E947002F7CFFC01248131E03093E30134
:10089000209305021092E401109206028385682BD2
:1008A00084EA92E00E9414040C94D60290E080E066
:1008B0000895CF93DF937894E6EAF0E08491E2E93B
:1008C000F0E0D491EEE7F0E0C491CC2379F081110F
:1008D0000E94C001EC2FF0E0EE0FFF1FE859FF4F20
:1008E000A591B491EC91ED23C1E009F4C0E0D1E011
:1008F000D093E30182E0809305021092E40110920C
:1009000006026C2F84EA92E00E9414040E94D60230
:10091000D093E30183E0809305021092E4011092EA
:1009200006026C2F84EA92E00E941404DF91CF91BA
:100930000C94D6020F931F93CF938C01C62F0E9465
:1009400043046C2F6460C8010E9443046C2F6B7FCA
:10095000C8010E94430483EC90E00197F1F7CF9126
:100960001F910F9108950F931F93CF93DF938C01E5
:10097000D62FC42F607F642B0E949A0480E1D89FF9
:10098000B00111246C2BC801DF91CF911F910F9101
:100990000C949A0441E00E94B30481E090E0089531
:1009A0000F931F93CF93DF93EC0188819981009778
:1009B00059F02A813B812617370730F081E0DF911B
:1009C000CF911F910F9108958B016F5F7F4F0E9410
:1009D000EE0A009759F0998388831B830A832C8140
:1009E0003D81232B59F7FC011082E8CF80E0E7CF4F
:1009F000CF93DF93EC0188819981009711F00E94D9
:100A0000650A198218821D821C821B821A82DF915C
:100A1000CF910895EF92FF920F931F93CF93DF939F
:100A2000EC017B018A01BA010E94D00481110BC044
:100A3000CE010E94F804CE01DF91CF911F910F915A
:100A4000FF90EF9008951D830C83B70188819981F1
:100A50000E94B40BF0CF0F931F93CF93DF93CDB7CA
:100A6000DEB728970FB6F894DEBF0FBECDBF9091CA
:100A7000B1018091B201981709F451C084EA92E063
:100A80000E94CD03182F1A8219821C821B821E829B
:100A90001D826091BC027091BD026115710541F02B
:100AA0004091C0025091C102CE0101960E940A05F8
:100AB0001F8318860D811E810F5F1F4FB801CE0165
:100AC00001960E94D004882301F129813A818D8109
:100AD0009E81BE01695F7F4F820F931F0E94B40BFE
:100AE0001E830D8369817A816115710599F04D81AD
:100AF0005E818CEB92E00E940A0589819A810097C1
:100B000009F4B5CF0E94650AB2CFCE0101960E94CA
:100B1000F804E8CF8CEB92E00E94F804EECF289620
:100B20000FB6F894DEBF0FBECDBFDF91CF911F91FE
:100B30000F91089585ED8093BC008091DF01909125
:100B4000E001A091E101B091E2010796A11DB11D64
:100B500023E0B695A795979587952A95D1F720918B
:100B6000BC0024FD03C01092DD0108954091DF0117
:100B70005091E0016091E1017091E201452B462B1B
:100B8000472B69F30097A105B10541F025E32A95AC
:100B9000F1F700000197A109B109E1CF8091DE01D1
:100BA0000C94B5021F920F920FB60F9211242F933F
:100BB0003F934F935F936F937F938F939F93AF93E5
:100BC000BF93EF93FF9387E092E00E943101FF9182
:100BD000EF91BF91AF919F918F917F916F915F91B5
:100BE0004F913F912F910F900FBE0F901F9018952E
:100BF0001F920F920FB60F9211242F938F939F93F2
:100C0000EF93FF93E0911702F09118028081E09139
:100C10001D02F0911E0282FD1BC090818091200276
:100C20008F5F8F7320912102821741F0E0912002A3
:100C3000F0E0E95FFD4F958F80932002FF91EF91E7
:100C40009F918F912F910F900FBE0F901F9018952D
:100C50008081F4CF1F920F920FB60F9211242F9321
:100C60003F938F939F93AF93BF938091A5019091F2
:100C7000A601A091A701B091A8013091A40123E0A1
:100C8000230F2D3758F50196A11DB11D2093A40106
:100C90008093A5019093A601A093A701B093A8010A
:100CA0008091A9019091AA01A091AB01B091AC01F2
:100CB0000196A11DB11D8093A9019093AA01A09353
:100CC000AB01B093AC01BF91AF919F918F913F91D8
:100CD0002F910F900FBE0F901F90189526E8230FAD
:100CE0000296A11DB11DD2CF1F920F920FB60F9287
:100CF00011242F933F934F935F936F937F938F9321
:100D00009F93AF93BF93EF93FF93E0910201F09114
:100D100003010995FF91EF91BF91AF919F918F9141
:100D20007F916F915F914F913F912F910F900FBEE7
:100D30000F901F9018951F920F920FB60F921124CB
:100D40002F933F934F935F936F937F938F939F93D3
:100D5000AF93BF93EF93FF93E0910001F0910101F6
:100D60000995FF91EF91BF91AF919F918F917F91E5
:100D70006F915F914F913F912F910F900FBE0F9008
:100D80001F9018951F920F920FB60F9211242F9358
:100D90003F934F935F936F937F938F939F93AF9303
:100DA000BF93EF93FF938091B900887F803609F459
:100DB0004AC0F0F5883209F4A7C018F5803109F46B
:100DC0009BC0B8F4882309F4F9C0883009F494C0B2
:100DD000FF91EF91BF91AF919F918F917F916F9113
:100DE0005F914F913F912F910F900FBE0F901F90E9
:100DF0001895883109F488C0803251F78093DB015F
:100E000014C0803409F49DC040F48033B9F38833B2
:100E1000F9F68093DB0185ECB0C0803509F485C01C
:100E2000883509F496C0883499F60E949A05D0CF87
:100E3000883909F48CC038F5883729F050F48836A1
:100E400011F0803729F683E08093DD011092A30131
:100E500057C0883809F47BC0803919F0803809F010
:100E6000B7CF8091A301803208F071C0E091A30157
:100E700081E08E0F8093A3018091BB00F0E0ED57DD
:100E8000FE4F80833DC0803B39F0E0F4803A09F4A6
:100E900079C0883A09F09CCF84E08093DD011092FC
:100EA000820110928101E091AD01F091AE010995AE
:100EB0008091810181110FC081E0809381011092A6
:100EC000610109C0803C09F4A6CF883C09F4A3CF96
:100ED000883B09F07DCFE091820181E08E0F809305
:100EE0008201F0E0EF59FE4F80818093BB0090912A
:100EF00082018091810129C08091B8018093BB005B
:100F000085EC8093BC0064CF9091DA018091D90187
:100F1000981758F5E091DA0181E08E0F8093DA019D
:100F2000F0E0E754FE4F8081E9CFE091DA0181E003
:100F30008E0F8093DA018091BB00F0E0E754FE4F02
:100F400080839091DA018091D9019817C8F285E8E1
:100F5000D8CFE091DA0181E08E0F8093DA018091A1
:100F6000BB00F0E0E754FE4F80838091DC018111EB
:100F70005CCF81E08093B70184EA8093BC0010923B
:100F8000DD0126CF85EC8093BC001092DD018091BD
:100F9000A301803230F4E091A301F0E0ED57FE4F61
:100FA00010826091A30170E0E091AF01F091B00177
:100FB00083E891E009951092A3010ACF1092DB011A
:100FC00034CFE7E0F2E01382128288EE93E0A0E0F3
:100FD000B0E084839583A683B7832EE031E031832C
:100FE000208325EC30E03587248724EC30E03787F8
:100FF000268720EC30E0318B208B21EC30E0338BE6
:10100000228B22EC30E0358B248B26EC30E0378BC2
:10101000268B118E128E138E148EE4EAF2E0138268
:10102000128284839583A683B78380E291E09183C3
:101030008083ECEBF2E0118210821382128215821F
:10104000148250E040E06AE371E0CF010E940A059B
:10105000E0EBF2E01382128282E391E091838083DD
:1010600087E2848380E1818782E082871386089506
:10107000789484B5826084BD84B5816084BD85B573
:10108000826085BD85B5816085BD80916E0081607F
:1010900080936E0010928100809181008260809325
:1010A0008100809181008160809381008091800027
:1010B0008160809380008091B10084608093B10052
:1010C0008091B00081608093B00080917A0084604C
:1010D00080937A0080917A00826080937A00809178
:1010E0007A00816080937A0080917A008068809392
:1010F0007A001092C10089E594E0909301018093F9
:101100000001809169008C7F816080936900E89A7A
:101110001092B2011092B1011092E40110920602F5
:101120000E94970288E890E09093AE018093AD0111
:1011300089E890E09093B0018093AF011092B502DE
:101140008091BA02823018F098E09093B5028093B3
:10115000B80262E370E080E090E00E943C0260919F
:10116000BB0280EB92E00E94430468EE73E080E0F3
:1011700090E00E943C0260E380EB92E00E949A04BF
:10118000CBE4D6E4CE010197F1F760E380EB92E087
:101190000E949A042197F1F760E380EB92E00E94AD
:1011A0009A0483E592E00197F1F760E280EB92E028
:1011B0000E949A046091B502606240E080EB92E088
:1011C0000E94B30484E08093B60240E06CE080EBC0
:1011D00092E00E94B30440E061E080EB92E00E9464
:1011E000B304CBE3DFE1CE010197F1F712E01093F6
:1011F000B70240E066E080EB92E00E94B30440E07A
:1012000062E080EB92E00E94B3042197F1F788E05E
:101210008093BB0260E080EB92E00E944304109256
:10122000E401109206020E9497021093BA008BE22A
:1012300095E09093B4018093B301E0911702F0918F
:1012400018021083E0911302F09114021082E091D1
:101250001502F09116028FEC808310921F02E0912C
:101260001B02F0911C0286E08083E0911902F0914C
:101270001A02808180618083E0911902F0911A0244
:10128000808188608083E0911902F0911A02808148
:1012900080688083E0911902F0911A0280818F7D2D
:1012A0008083C0E0D0E040E060E880EB92E00E9404
:1012B000B3044091C0025091C1026091BC02709190
:1012C000BD0280EB92E00E94B30050E040E06AE390
:1012D00071E08CEB92E00E940A0564E670E080E029
:1012E00090E00E943C026091B5017091B6018DE0E2
:1012F0000E94E9012097B9F20E941D01882399F20A
:101300000E940000D0CF8091BC029091BD02009756
:1013100011F00C94650A08952F923F924F925F92BC
:101320006F927F928F929F92AF92BF92CF92DF92F5
:10133000EF92FF920F931F93CF93DF93CDB7DEB75A
:10134000CA1BDB0B0FB6F894DEBF0FBECDBF0994EE
:101350002A88398848885F846E847D848C849B8445
:10136000AA84B984C884DF80EE80FD800C811B8153
:10137000AA81B981CE0FD11D0FB6F894DEBF0FBE82
:10138000CDBFED010895EE0FFF1F0590F491E02D04
:1013900009940F931F93CF93DF938230910510F43C
:1013A00082E090E0E091C402F091C50230E020E0DC
:1013B000B0E0A0E0309799F42115310509F44AC056
:1013C000281B390B24303105D8F58A819B816115A2
:1013D000710589F1FB0193838283FE0111C0408175
:1013E00051810281138148175907E0F048175907C6
:1013F00099F4109761F012960C93129713961C9320
:101400003296CF01DF91CF911F910F9108950093F4
:10141000C4021093C502F4CF2115310551F04217D3
:10142000530738F0A901DB019A01BD01DF01F80182
:10143000C1CFEF01F9CF9093C5028093C402CDCF05
:10144000FE01E20FF31F81939193225031093983FA
:101450002883D7CF2091C2023091C302232B41F4BD
:1014600020910601309107013093C3022093C202FC
:1014700020910401309105012115310541F42DB76A
:101480003EB74091080150910901241B350BE091B2
:10149000C202F091C302E217F307A0F42E1B3F0B28
:1014A0002817390778F0AC014E5F5F4F24173507D6
:1014B00048F04E0F5F1F5093C3024093C2028193C6
:1014C00091939FCFF0E0E0E09CCFCF93DF93009724
:1014D000E9F0FC01329713821282A091C402B0910C
:1014E000C502ED0130E020E01097A1F420813181A8
:1014F000820F931F2091C2023091C302281739072F
:1015000009F061C0F093C302E093C202DF91CF9172
:101510000895EA01CE17DF07E8F54A815B819E0155
:1015200041155105B1F7E901FB83EA8349915991CE
:10153000C40FD51FEC17FD0761F4808191810296DD
:10154000840F951FE90199838883828193819B830E
:101550008A83F0E0E0E012968D919C9113970097BA
:10156000B9F52D913C911197CD010296820F931FF1
:101570002091C2023091C3022817390739F63097FB
:1015800051F51092C5021092C402B093C302A09309
:10159000C202BCCFD383C28340815181840F951F87
:1015A000C817D90761F44E5F5F4F88819981480F52
:1015B000591F518340838A819B81938382832115A4
:1015C000310509F0B0CFF093C502E093C4029ECF7D
:1015D000FD01DC01C0CF13821282D7CFB0E0A0E0C2
:1015E000E4EFFAE00C948E098C01009751F4CB01E2
:1015F0000E94C9098C01C801CDB7DEB7E0E10C94A7
:10160000AA09FC01E60FF71F9C0122503109E217DD
:10161000F30708F49DC0D901CD91DC911197C6174D
:10162000D70798F0C530D10530F3CE01049786175F
:10163000970708F3C61BD70B2297C193D1936D93DD
:101640007C93CF010E94650AD6CF5B01AC1ABD0A1C
:101650004C018C0E9D1EA091C402B091C502512C6C
:10166000412CF12CE12C109731F58091C202909120
:10167000C3028815990509F05CC04616570608F0A4
:1016800058C08091040190910501009741F48DB7F5
:101690009EB74091080150910901841B950BE817F2
:1016A000F90708F055C0F093C302E093C202F901B4
:1016B00071836083A0CF8D919C91119712966C904D
:1016C000129713967C901397A815B90559F56C01DC
:1016D00042E0C40ED11CCA14DB0420F1AC014A194B
:1016E0005B09DA011296159780F06282738251834A
:1016F0004083D9016D937C93E114F10471F0D7011B
:101700001396FC93EE93129776CF22968C0F9D1F23
:10171000F90191838083F301EFCFF093C502E09349
:10172000C40269CF4816590608F42C017D01D30183
:101730009ACFCB010E94C9097C01009749F0AE0104
:10174000B8010E94AB0BC8010E94650A870153CF04
:1017500010E000E050CFFB01DC0102C001900D92CF
:1017600041505040D8F70895FB01DC0101900D92E3
:101770000020E1F7089510E0CDE5D0E004C0FE01BF
:101780000E94C3092196CE35D107C9F7F894FFCF3F
:101790006E026E020000C6028000000000005301CD
:1017A000B300E000A0011101EF0003010000000000
:1017B0001404E7035604BD03E003CD03BE03000099
:0C17C0000000CA04B30056046F020000D1
:00000001FF
