:100000000C9463000C9427050C9400050C948B0051
:100010000C948B000C948B000C948B000C948B0034
:100020000C948B000C948B000C948B000C948B0024
:100030000C948B000C946D060C948B000C948B002C
:100040000C94B6040C948B000C9484040C945E0401
:100050000C948B000C948B000C948B000C948B00F4
:100060000C944E050C948B00000000002400270027
:100070002A0000000000250028002B0000000000DE
:1000800023002600290004040404040404040202DA
:100090000202020203030303030301020408102007
:1000A0004080010204081020010204081020000012
:1000B0000008000201000003040700000000000027
:1000C00000008F076F0911241FBECFEFD8E0DEBFFD
:1000D000CDBF22E0AAE3B1E001C01D92A33BB2076D
:1000E000E1F711E0A0E0B1E0E8E6F7E102C0059039
:1000F0000D92AA33B107D9F710E0C2E6D0E004C0F0
:100100002197FE010E94AF09C136D107C9F70E94AD
:1001100015080C94A70B0C9400000895CF93DF935F
:10012000AC01E091FE01F091FF013097F1F0909168
:10013000FD018091FC019817C0F090E0292F30E07C
:100140002617370754F4D901A35ABE4F240F351F81
:10015000E90128812C939F5FF1CF1092FD016093FC
:10016000FC01CB01DF91CF910994DF91CF910895EC
:10017000AF92BF92CF92DF92EF92FF920F931F93B5
:10018000CF93DF936C017B018B01040F151FEB01F3
:100190005E01AE18BF08C017D10759F06991D601AA
:1001A000ED91FC910190F081E02DC6010995892B1C
:1001B00079F7C501DF91CF911F910F91FF90EF90DB
:1001C000DF90CF90BF90AF900895FC01538D448D88
:1001D000252F30E0842F90E0821B930B541710F0F2
:1001E000CF96089501970895FC01918D828D9817FF
:1001F00061F0A28DAE0FBF2FB11D5D968C91928DD7
:100200009F5F9F73928F90E008958FEF9FEF089507
:10021000FC01918D828D981731F0828DE80FF11DD0
:10022000858D90E008958FEF9FEF0895FC01918DEB
:10023000228D892F90E0805C9F4F821B91098F73E4
:100240009927089580E092E00E94160121E0892B11
:1002500009F420E0822F089580E090E0892B29F0B6
:100260000E94220181110C9400000895FC01A48DCC
:10027000A80FB92FB11DA35ABF4F2C91848D90E0C8
:1002800001968F739927848FA689B7892C93A089AB
:10029000B1898C91837080648C93938D848D981335
:1002A00006C00288F389E02D80818F7D80830895C8
:1002B000EF92FF920F931F93CF93DF93EC0181E0B6
:1002C000888F9B8D8C8D98131AC0E889F98980815D
:1002D00085FF15C09FB7F894EE89FF896083E88990
:1002E000F98980818370806480839FBF81E090E082
:1002F000DF91CF911F910F91FF90EF900895F62E0F
:100300000B8D10E00F5F1F4F0F731127E02E8C8DA8
:100310008E110CC00FB607FCFACFE889F9898081ED
:1003200085FFF5CFCE010E943601F1CFEB8DEC0FAA
:10033000FD2FF11DE35AFF4FF0829FB7F8940B8F0A
:10034000EA89FB8980818062CFCFCF93DF93EC0174
:10035000888D8823B9F0AA89BB89E889F9898C91AD
:1003600085FD03C0808186FD0DC00FB607FCF7CF69
:100370008C9185FFF2CF808185FFEDCFCE010E9469
:100380003601E9CFDF91CF910895833081F028F4D1
:10039000813099F08230A9F008958730A9F0883033
:1003A000C9F08430B1F4809180008F7D03C08091CA
:1003B00080008F7780938000089584B58F7784BD07
:1003C000089584B58F7DFBCF8091B0008F778093A7
:1003D000B00008958091B0008F7DF9CFCF93DF9367
:1003E000282F30E0F901E255FF4F8491F901E656DC
:1003F000FF4FD491F901EA57FF4FC491CC23A1F0EC
:1004000081110E94C501EC2FF0E0EE0FFF1FE458B0
:10041000FF4FA591B491EC91ED2381E090E009F4B8
:1004200080E0DF91CF91089580E090E0FACF1F93B4
:10043000CF93DF93282F30E0F901E255FF4F8491ED
:10044000F901E656FF4FD491F901EA57FF4FC491E5
:10045000CC23A9F0162F81110E94C501EC2FF0E0EA
:10046000EE0FFF1FEE58FF4FA591B4918FB7F89490
:10047000EC91111108C0D095DE23DC938FBFDF9182
:10048000CF911F910895DE2BF8CFCF93DF9390E0AB
:10049000FC01E656FF4F24918A579F4FFC0184913F
:1004A0008823D1F090E0880F991FFC01E859FF4F95
:1004B000A591B491FC01EE58FF4FC591D491611103
:1004C0000EC09FB7F8948C91E22FE0958E238C9309
:1004D0002881E223E8839FBFDF91CF9108958FB7F2
:1004E000F894EC91E22BEC938FBFF6CF3FB7F894E2
:1004F0008091F2019091F301A091F401B091F50186
:1005000026B5A89B05C02F3F19F00196A11DB11D6E
:100510003FBFBA2FA92F982F8827BC01CD01620FAA
:10052000711D811D911D42E0660F771F881F991F65
:100530004A95D1F708958F929F92AF92BF92CF9232
:10054000DF92EF92FF924B015C010E9476026B01F9
:100550007C010E9476026C197D098E099F09683E14
:10056000734081059105A8F321E0821A9108A10842
:10057000B10888EEC80E83E0D81EE11CF11C81147E
:100580009104A104B10429F7FF90EF90DF90CF9080
:10059000BF90AF909F908F90089508952091A301F0
:1005A000260F3327331F21323105ECF42091C70188
:1005B000FC0190E080E0243069F082E00895A09191
:1005C000A3012191AC014D575E4FA40FB52FB11D72
:1005D0002C930196861798F38091A301680F60937E
:1005E000A30180E0089581E008951092C70181E0A1
:1005F0008093C9011092C80161E082E10E94170254
:1006000061E083E10E941702E9EBF0E080818E7FD8
:10061000808380818D7F808388E48093B80085E427
:100620008093BC000895CF93DF9391E09093820173
:100630008823B9F0C091B800D091BA008091BC0075
:100640008A7B8093BC0060E082E10E94170260E038
:1006500083E10E9417020E94F502D093BA00C09372
:10066000B800DF91CF9108950895E091FD01809148
:10067000FC01E81730F4F0E0E35AFE4F808190E08F
:1006800008958FEF9FEF08959091FD018091FC01F7
:100690002FEF3FEF981748F4E92FF0E0E35AFE4FB1
:1006A000208130E09F5F9093FD01C9010895809102
:1006B000FC019091FD01891B990B0895CF92DF9267
:1006C000EF92FF920F931F93CF93DF937C01CB01A7
:1006D0008A0120915C01222389F0EB016B01C40E99
:1006E000D51ECC15DD0569F06991D701ED91FC911E
:1006F0000190F081E02DC7010995F3CF642F0E948E
:10070000CE02C801DF91CF911F910F91FF90EF9022
:10071000DF90CF900895CF93DF931F92CDB7DEB7D0
:10072000698320915C012223F9F02091FA012032A3
:1007300058F021E030E0FC013383228390E080E038
:100740000F90DF91CF9108958091FB01E82FF0E0A9
:10075000E45CFE4F998190838F5F8093FB018093CF
:10076000FA0181E090E0ECCF61E0CE0101960E94B9
:10077000CE02F7CF90E080E008958BE00E94EE017A
:100780000197F9F08CE00E94EE010197D1F08AE028
:100790000E94EE010197A9F089E00E94EE01019705
:1007A00081F088E00E94EE01019759F080913A01B2
:1007B000813039F02091040130910501232B31F073
:1007C000089510920501109204010895811106C048
:1007D00081E090E09093050180930401089578945E
:1007E0008DE992E00E94440380933A010C94BD038A
:1007F000CF93DF93EC018091A9029091AA02009718
:1008000059F02091AB023091AC022C173D0720F03B
:1008100081E0DF91CF910895BE016F5F7F4F0E940D
:10082000DA0A009789F09093AA028093A902D093E4
:10083000AC02C093AB022091AD023091AE02232BEB
:1008400039F7FC011082E4CF80E0E3CF85ED80939F
:10085000BC0080917E0190917F01A0918001B091B8
:1008600081010796A11DB11D23E0B695A795979527
:1008700087952A95D1F72091BC0024FD03C01092E2
:10088000C701089540917E0150917F0160918001E0
:1008900070918101452B462B472B69F30097A105E9
:1008A000B10541F025E32A95F1F700000197A10970
:1008B000B109E1CF80917D010C9413031F920F9237
:1008C0000FB60F9211242F933F934F935F936F9323
:1008D0007F938F939F93AF93BF93EF93FF9380E0AA
:1008E00092E00E943601FF91EF91BF91AF919F91ED
:1008F0008F917F916F915F914F913F912F910F90C9
:100900000FBE0F901F9018951F920F920FB60F9267
:1009100011242F938F939F93EF93FF93E0911002F5
:10092000F09111028081E0911602F091170282FD90
:100930001BC09081809119028F5F8F7320911A02E2
:10094000821741F0E0911902F0E0E050FE4F958FE0
:1009500080931902FF91EF919F918F912F910F90AA
:100960000FBE0F901F9018958081F4CF1F920F92A9
:100970000FB60F9211242F933F938F939F93AF93B2
:10098000BF938091EE019091EF01A091F001B091A1
:10099000F1013091ED0123E0230F2D3758F5019639
:1009A000A11DB11D2093ED018093EE019093EF0105
:1009B000A093F001B093F1018091F2019091F301C5
:1009C000A091F401B091F5010196A11DB11D809394
:1009D000F2019093F301A093F401B093F501BF915C
:1009E000AF919F918F913F912F910F900FBE0F90DC
:1009F0001F90189526E8230F0296A11DB11DD2CF96
:100A00001F920F920FB60F9211242F933F934F9383
:100A10005F936F937F938F939F93AF93BF93EF9366
:100A2000FF93E0910201F09103010995FF91EF918D
:100A3000BF91AF919F918F917F916F915F914F91F6
:100A40003F912F910F900FBE0F901F9018951F92FE
:100A50000F920FB60F9211242F933F934F935F93F2
:100A60006F937F938F939F93AF93BF93EF93FF9376
:100A7000E0910001F09101010995FF91EF91BF9183
:100A8000AF919F918F917F916F915F914F913F9126
:100A90002F910F900FBE0F901F9018951F920F92DD
:100AA0000FB60F9211242F933F934F935F936F9341
:100AB0007F938F939F93AF93BF93EF93FF93809117
:100AC000B900887F803609F44AC0F0F5883209F40D
:100AD000A7C018F5803109F49BC0B8F4882309F445
:100AE000F9C0883009F494C0FF91EF91BF91AF91A4
:100AF0009F918F917F916F915F914F913F912F9136
:100B00000F900FBE0F901F901895883109F488C080
:100B1000803251F78093C60114C0803409F49DC01F
:100B200040F48033B9F38833F9F68093C60185EC3D
:100B3000B0C0803509F485C0883509F496C0883482
:100B400099F60E942604D0CF883909F48CC038F574
:100B5000883729F050F4883611F0803729F683E081
:100B60008093C7011092C50157C0883809F47BC033
:100B7000803919F0803809F0B7CF8091C5018032F3
:100B800008F071C0E091C50181E08E0F8093C5012E
:100B90008091BB00F0E0EB55FE4F80833DC0803B71
:100BA00039F0E0F4803A09F479C0883A09F09CCF32
:100BB00084E08093C7011092A4011092A301E091F8
:100BC000F801F091F90109958091A30181110FC0FD
:100BD00081E08093A3011092830109C0803C09F455
:100BE000A6CF883C09F4A3CF883B09F07DCFE091E4
:100BF000A40181E08E0F8093A401F0E0ED57FE4F39
:100C000080818093BB009091A4018091A30129C0B1
:100C10008091EC018093BB0085EC8093BC0064CF95
:100C20009091EB018091EA01981758F5E091EB0162
:100C300081E08E0F8093EB01F0E0E653FE4F808160
:100C4000E9CFE091EB0181E08E0F8093EB01809181
:100C5000BB00F0E0E653FE4F80839091EB01809162
:100C6000EA019817C8F285E8D8CFE091EB0181E05E
:100C70008E0F8093EB018091BB00F0E0E653FE4FB6
:100C800080838091C90181115CCF81E08093C8018C
:100C900084EA8093BC001092C70126CF85EC809334
:100CA000BC001092C7018091C501803230F4E09100
:100CB000C501F0E0EB55FE4F10826091C50170E078
:100CC000E091F601F091F70185EA91E00995109223
:100CD000C5010ACF1092C60134CF1F920F920FB6F2
:100CE0000F921124CF92DF92EF92FF920F931F93F6
:100CF0002F933F934F935F936F937F938F939F9324
:100D0000AF93BF93CF93DF93EF93FF9364E670E0CD
:100D100080E090E00E949B0278948DEE95E890939D
:100D200085008093840081E080935C0180933B0187
:100D30001092FB011092FA016091A9027091AA022F
:100D40006115710561F0FB0101900020E9F7319711
:100D5000AF01461B570B8DE992E00E945E03D091D4
:100D6000FA01D13208F094C0C0913B010E94760292
:100D70006B017C018091C701811165C082E0809385
:100D8000C70181E08093C9018FEF8093C601109263
:100D9000EB01D093EA01ACE3B1E0EAECF1E080E0F2
:100DA000D81395C01092EC018091EC01CC0FC82BA8
:100DB000C093EC018091C801813009F08CC0109281
:100DC000C8010E9476026B017C018091EC01809346
:100DD000BB0080917E0190917F01A0918001B09134
:100DE0008101892B8A2B8B2B99F00E94760200912E
:100DF0007E0110917F0120918001309181016C1959
:100E00007D098E099F090617170728073907E0F1A2
:100E10008091BC0083FDD9CF85EC8093BC000E94FB
:100E200076026B017C018091C701823009F455C0C4
:100E30008091C6018F3F61F18091C601803241F1FE
:100E40008091C60125C080917E0190917F01A09183
:100E50008001B0918101892B8A2B8B2B09F48ACFD9
:100E60000E94760200917E0110917F012091800105
:100E7000309181016C197D098E099F0906171707AA
:100E80002807390708F076CF80917D010E9413036F
:100E90001092FB011092FA0110925C01FF91EF9108
:100EA000DF91CF91BF91AF919F918F917F916F9182
:100EB0005F914F913F912F911F910F91FF90EF9074
:100EC000DF90CF900F900FBE0F901F9018959D91BF
:100ED00091938F5F65CF85EEA0CF80917E01909139
:100EE0007F01A0918001B0918101892B8A2B8B2BEE
:100EF00009F499CF0E94760200917E0110917F0142
:100F000020918001309181016C197D098E099F0922
:100F1000061717072807390708F085CFB5CF1092B5
:100F200003021092020288EE93E0A0E0B0E080930A
:100F3000040290930502A0930602B093070225E1F4
:100F400031E0309301022093000225EC30E0309331
:100F50000D0220930C0224EC30E030930F0220931A
:100F60000E0220EC30E0309311022093100221ECAD
:100F700030E0309313022093120222EC30E03093E1
:100F800015022093140226EC30E0309317022093D0
:100F900016021092190210921A0210921B0210925D
:100FA0001C021092A00210929F028093A1029093C3
:100FB000A202A093A302B093A40287E291E09093CF
:100FC0009E0280939D021092AA021092A902109292
:100FD000AC021092AB021092AE021092AD0290E001
:100FE00080E00E94F8032091A9023091AA028111A9
:100FF00013C02115310519F0C9010E94510A109240
:10100000AA021092A9021092AE021092AD021092A2
:10101000AC021092AB0208951092AE021092AD0293
:1010200066E371E0C9010C94A00B789484B58260EA
:1010300084BD84B5816084BD85B5826085BD85B57C
:10104000816085BD80916E00816080936E001092FA
:101050008100809181008260809381008091810075
:101060008160809381008091800081608093800006
:101070008091B10084608093B1008091B000816064
:101080008093B00080917A00846080937A00809190
:101090007A00826080937A0080917A0081608093E8
:1010A0007A0080917A00806880937A001092C10063
:1010B00061E08DE00E94450260E08CE00E94450204
:1010C00060E08BE00E94450260E08AE00E944502F9
:1010D00060E089E00E94450260E088E00E944502ED
:1010E000F89410928000109281008DEE95E8909314
:1010F00085008093840080918100856080938100C9
:1011000080916F00816080936F0078942DEB33E0C5
:10111000309303012093020180916900837F8460F2
:1011200080936900E99A3093010120930001809136
:1011300069008C7F816080936900E89A1092FD01BC
:101140001092FC011092FB011092FA010E94F5022C
:101150008DE890E09093F9018093F8018EE890E09B
:101160009093F7018093F60186E08093BA002FEE0A
:1011700033E03093FF012093FE01E0911002F091E3
:10118000110292E09083E0910C02F0910D02108226
:10119000E0910E02F0910F029FEC908310921802E2
:1011A000E0911402F09115028083E0911202F09117
:1011B0001302808180618083E0911202F09113021A
:1011C000808188608083E0911202F0911302808117
:1011D00080688083E0911202F091130280818F7DFC
:1011E000808300E010E060910401709105018DE0C2
:1011F0000E9417028CE0E82E81E0F82EF701819121
:101200007F010E94EE01C091AD02D091AE02219605
:10121000892B09F04AC0CE010E94F803882391F07F
:101220002091A9023091AA028091AD029091AE0264
:1012300065E371E0820F931F0E94A00BD093AE0272
:10124000C093AD02F1E1EF16F1E0FF06B9F664EFED
:1012500071E080E090E00E949B0290E080E00E94BC
:10126000F8032091A9023091AA0281112EC0211504
:10127000310519F0C9010E94510A1092AA02109278
:10128000A9021092AE021092AD021092AC0210921E
:10129000AB020115110509F4A6CF0E942201882393
:1012A00009F4A1CF0E9400009ECFCE010E94F80356
:1012B000882341F22091A9023091AA028091AD02C7
:1012C0009091AE0267E371E0B5CF1092AE0210923A
:1012D000AD0266E371E0C9010E94A00BDACF8091F4
:1012E000A9029091AA02009711F00C94510A089556
:1012F0002F923F924F925F926F927F928F929F9226
:10130000AF92BF92CF92DF92EF92FF920F931F9313
:10131000CF93DF93CDB7DEB7CA1BDB0B0FB6F894C4
:10132000DEBF0FBECDBF09942A88398848885F8404
:101330006E847D848C849B84AA84B984C884DF8075
:10134000EE80FD800C811B81AA81B981CE0FD11D59
:101350000FB6F894DEBF0FBECDBFED010895EE0FBE
:10136000FF1F0590F491E02D09940F931F93CF93E5
:10137000DF938230910510F482E090E0E091B102B9
:10138000F091B20230E020E0B0E0A0E0309799F4B4
:101390002115310509F44AC0281B390B24303105C9
:1013A000D8F58A819B816115710589F1FB019383D1
:1013B0008283FE0111C0408151810281138148174F
:1013C0005907E0F04817590799F4109761F0129601
:1013D0000C93129713961C933296CF01DF91CF9105
:1013E0001F910F9108950093B1021093B202F4CFB0
:1013F0002115310551F04217530738F0A901DB01DF
:101400009A01BD01DF01F801C1CFEF01F9CF90933F
:10141000B2028093B102CDCFFE01E20FF31F8193A0
:1014200091932250310939832883D7CF2091AF027D
:101430003091B002232B41F4209108013091090131
:101440003093B0022093AF02209106013091070142
:101450002115310541F42DB73EB740910A01509155
:101460000B01241B350BE091AF02F091B002E217A3
:10147000F307A0F42E1B3F0B2817390778F0AC01B7
:101480004E5F5F4F2417350748F04E0F5F1F509394
:10149000B0024093AF02819391939FCFF0E0E0E0E0
:1014A0009CCFCF93DF930097E9F0FC013297138232
:1014B0001282A091B102B091B202ED0130E020E0C1
:1014C0001097A1F420813181820F931F2091AF02E8
:1014D0003091B0022817390709F061C0F093B002CB
:1014E000E093AF02DF91CF910895EA01CE17DF07B5
:1014F000E8F54A815B819E0141155105B1F7E9018B
:10150000FB83EA8349915991C40FD51FEC17FD075E
:1015100061F4808191810296840F951FE90199837E
:101520008883828193819B838A83F0E0E0E0129636
:101530008D919C9113970097B9F52D913C9111973E
:10154000CD010296820F931F2091AF023091B0021D
:101550002817390739F6309751F51092B2021092D8
:10156000B102B093B002A093AF02BCCFD383C283C9
:1015700040815181840F951FC817D90761F44E5FD0
:101580005F4F88819981480F591F518340838A8119
:101590009B81938382832115310509F0B0CFF093AD
:1015A000B202E093B1029ECFFD01DC01C0CF1382F5
:1015B0001282D7CFB0E0A0E0E0EEFAE00C947A0916
:1015C0008C01009751F4CB010E94B5098C01C80130
:1015D000CDB7DEB7E0E10C949609FC01E60FF71FEA
:1015E0009C0122503109E217F30708F49DC0D9018C
:1015F000CD91DC911197C617D70798F0C530D1056A
:1016000030F3CE0104978617970708F3C61BD70B54
:101610002297C193D1936D937C93CF010E94510A7D
:10162000D6CF5B01AC1ABD0A4C018C0E9D1EA09159
:10163000B102B091B202512C412CF12CE12C109747
:1016400031F58091AF029091B0028815990509F0AB
:101650005CC04616570608F058C08091060190916C
:101660000701009741F48DB79EB740910A01509150
:101670000B01841B950BE817F90708F055C0F09390
:10168000B002E093AF02F90171836083A0CF8D9126
:101690009C91119712966C90129713967C901397C9
:1016A000A815B90559F56C0142E0C40ED11CCA1445
:1016B000DB0420F1AC014A195B09DA011296159797
:1016C00080F06282738251834083D9016D937C9351
:1016D000E114F10471F0D7011396FC93EE93129785
:1016E00076CF22968C0F9D1FF90191838083F301A1
:1016F000EFCFF093B202E093B10269CF48165906DA
:1017000008F42C017D01D3019ACFCB010E94B509C9
:101710007C01009749F0AE01B8010E94970BC80107
:101720000E94510A870153CF10E000E050CFFB0127
:10173000DC0102C001900D9241505040D8F708954D
:10174000FB01DC0101900D920020E1F7089510E00B
:10175000C2E6D0E004C0FE010E94AF092196C33664
:08176000D107C9F7F894FFCF8F
:10176800CD02CD0201000000B302800008090A0B77
:101778000C000000005801B800E500A5011601F4AE
:10178800000801000000008B035E03BA033403570E
:0A1798000344033503300031000064
:00000001FF
