:100000000C9463000C9424050C94FD040C948B0058
:100010000C948B000C948B000C948B000C948B0034
:100020000C948B000C948B000C948B000C948B0024
:100030000C948B000C946A060C948B000C948B002F
:100040000C94B3040C948B000C9481040C945B040A
:100050000C948B000C948B000C948B000C948B00F4
:100060000C944B050C948B0000000000240027002A
:100070002A0000000000250028002B0000000000DE
:1000800023002600290004040404040404040202DA
:100090000202020203030303030301020408102007
:1000A0004080010204081020010204081020000012
:1000B0000008000201000003040700000000000027
:1000C00000008607650911241FBECFEFD8E0DEBF10
:1000D000CDBF22E0ACE3B1E001C01D92A53BB20769
:1000E000E1F711E0A0E0B1E0E4E5F7E102C005903E
:1000F0000D92AC33B107D9F710E0C2E6D0E004C0EE
:100100002197FE010E94A509C136D107C9F70E94B7
:100110000C080C949D0B0C9400000895CF93DF9372
:10012000AC01E0910002F09101023097F1F0909162
:10013000FF018091FE019817C0F090E0292F30E078
:100140002617370754F4D901A15ABE4F240F351F83
:10015000E90128812C939F5FF1CF1092FF016093FA
:10016000FE01CB01DF91CF910994DF91CF910895EA
:10017000AF92BF92CF92DF92EF92FF920F931F93B5
:10018000CF93DF936C017B018B01040F151FEB01F3
:100190005E01AE18BF08C017D10759F06991D601AA
:1001A000ED91FC910190F081E02DC6010995892B1C
:1001B00079F7C501DF91CF911F910F91FF90EF90DB
:1001C000DF90CF90BF90AF900895FC01538D448D88
:1001D000252F30E0842F90E0821B930B541710F0F2
:1001E000CF96089501970895FC01918D828D9817FF
:1001F00061F0A28DAE0FBF2FB11D5D968C91928DD7
:100200009F5F9F73928F90E008958FEF9FEF089507
:10021000FC01918D828D981731F0828DE80FF11DD0
:10022000858D90E008958FEF9FEF0895FC01918DEB
:10023000228D892F90E0805C9F4F821B91098F73E4
:100240009927089582E092E00E94160121E0892B0F
:1002500009F420E0822F089580E090E0892B29F0B6
:100260000E94220181110C9400000895FC01A48DCC
:10027000A80FB92FB11DA35ABF4F2C91848D90E0C8
:1002800001968F739927848FA689B7892C93A089AB
:10029000B1898C91837080648C93938D848D981335
:1002A00006C00288F389E02D80818F7D80830895C8
:1002B000EF92FF920F931F93CF93DF93EC0181E0B6
:1002C000888F9B8D8C8D98131AC0E889F98980815D
:1002D00085FF15C09FB7F894EE89FF896083E88990
:1002E000F98980818370806480839FBF81E090E082
:1002F000DF91CF911F910F91FF90EF900895F62E0F
:100300000B8D10E00F5F1F4F0F731127E02E8C8DA8
:100310008E110CC00FB607FCFACFE889F9898081ED
:1003200085FFF5CFCE010E943601F1CFEB8DEC0FAA
:10033000FD2FF11DE35AFF4FF0829FB7F8940B8F0A
:10034000EA89FB8980818062CFCFCF93DF93EC0174
:10035000888D8823B9F0AA89BB89E889F9898C91AD
:1003600085FD03C0808186FD0DC00FB607FCF7CF69
:100370008C9185FFF2CF808185FFEDCFCE010E9469
:100380003601E9CFDF91CF910895833081F028F4D1
:10039000813099F08230A9F008958730A9F0883033
:1003A000C9F08430B1F4809180008F7D03C08091CA
:1003B00080008F7780938000089584B58F7784BD07
:1003C000089584B58F7DFBCF8091B0008F778093A7
:1003D000B00008958091B0008F7DF9CFCF93DF9367
:1003E000282F30E0F901E255FF4F8491F901E656DC
:1003F000FF4FD491F901EA57FF4FC491CC23A1F0EC
:1004000081110E94C501EC2FF0E0EE0FFF1FE458B0
:10041000FF4FA591B491EC91ED2381E090E009F4B8
:1004200080E0DF91CF91089580E090E0FACF1F93B4
:10043000CF93DF93282F30E0F901E255FF4F8491ED
:10044000F901E656FF4FD491F901EA57FF4FC491E5
:10045000CC23A9F0162F81110E94C501EC2FF0E0EA
:10046000EE0FFF1FEE58FF4FA591B4918FB7F89490
:10047000EC91111108C0D095DE23DC938FBFDF9182
:10048000CF911F910895DE2BF8CFCF93DF9390E0AB
:10049000FC01E656FF4F24918A579F4FFC0184913F
:1004A0008823D1F090E0880F991FFC01E859FF4F95
:1004B000A591B491FC01EE58FF4FC591D491611103
:1004C0000EC09FB7F8948C91E22FE0958E238C9309
:1004D0002881E223E8839FBFDF91CF9108958FB7F2
:1004E000F894EC91E22BEC938FBFF6CF3FB7F894E2
:1004F0008091F4019091F501A091F601B091F7017E
:1005000026B5A89B05C02F3F19F00196A11DB11D6E
:100510003FBFBA2FA92F982F8827BC01CD01620FAA
:10052000711D811D911D42E0660F771F881F991F65
:100530004A95D1F7089508952091A501260F3327F4
:10054000331F21323105ECF42091C901FC0190E008
:1005500080E0243069F082E00895A091A501219106
:10056000AC014B575E4FA40FB52FB11D2C930196D4
:10057000861798F38091A501680F6093A50180E02C
:10058000089581E008951092C90181E08093CB0124
:100590001092CA0161E082E10E94170261E083E1EA
:1005A0000E941702E9EBF0E080818E7F80838081DA
:1005B0008D7F808388E48093B80085E48093BC00BD
:1005C0000895CF93DF9391E0909384018823B9F04D
:1005D000C091B800D091BA008091BC008A7B809312
:1005E000BC0060E082E10E94170260E083E10E94AB
:1005F00017020E94C302D093BA00C093B800DF91E3
:10060000CF9108950895E091FF018091FE01E817D0
:1006100030F4F0E0E15AFE4F808190E008958FEFD2
:100620009FEF08959091FF018091FE012FEF3FEF22
:10063000981748F4E92FF0E0E15AFE4F208130E0AE
:100640009F5F9093FF01C90108958091FE019091F1
:10065000FF01891B990B0895CF92DF92EF92FF92D1
:100660000F931F93CF93DF937C01CB018A012091DD
:100670005E01222389F0EB016B01C40ED51ECC155F
:10068000DD0569F06991D701ED91FC910190F08150
:10069000E02DC7010995F3CF642F0E949C02C80189
:1006A000DF91CF911F910F91FF90EF90DF90CF904E
:1006B0000895CF93DF931F92CDB7DEB76983209162
:1006C0005E012223F9F02091FC01203258F021E054
:1006D00030E0FC013383228390E080E00F90DF91D3
:1006E000CF9108958091FD01E82FF0E0E25CFE4F8C
:1006F000998190838F5F8093FD018093FC0181E05D
:1007000090E0ECCF61E0CE0101960E949C02F7CF11
:1007100090E080E008958BE00E94EE010197F9F0EF
:100720008CE00E94EE010197D1F08AE00E94EE0178
:100730000197A9F089E00E94EE01019781F088E01D
:100740000E94EE01019759F080913C01813039F00F
:100750002091040130910501232B31F0089510926E
:100760000501109204010895811106C081E090E016
:100770009093050180930401089578948FE992E0A5
:100780000E94120380933C010C948B03CF93DF9360
:10079000EC018091AB029091AC02009759F020914E
:1007A000AD023091AE022C173D0720F081E0DF91C1
:1007B000CF910895BE016F5F7F4F0E94D00A0097CE
:1007C00089F09093AC028093AB02D093AE02C093B9
:1007D000AD022091AF023091B002232B39F7FC011A
:1007E0001082E4CF80E0E3CF0F931F93CF93DF938A
:1007F000FC0101900020E9F73197E81BF90BE9F0C3
:100800008C01C091AF02D091B002CE0FDF1FCE019C
:100810000E94C603882391F02091AB023091AC0274
:100820008091AF029091B002B801820F931F0E9495
:10083000960BD093B002C093AF0281E0DF91CF91CD
:100840001F910F91089585ED8093BC0080918001E8
:1008500090918101A0918201B09183010796A11D21
:10086000B11D23E0B695A795979587952A95D1F761
:100870002091BC0024FD03C01092C901089540914D
:100880008001509181016091820170918301452B1B
:10089000462B472B69F30097A105B10541F025E3ED
:1008A0002A95F1F700000197A109B109E1CF8091E4
:1008B0007F010C94E1021F920F920FB60F92112448
:1008C0002F933F934F935F936F937F938F939F9358
:1008D000AF93BF93EF93FF9382E092E00E943601C3
:1008E000FF91EF91BF91AF919F918F917F916F9108
:1008F0005F914F913F912F910F900FBE0F901F90DE
:1009000018951F920F920FB60F9211242F938F9369
:100910009F93EF93FF93E0911202F0911302808175
:10092000E0911802F091190282FD1BC09081809124
:100930001B028F5F8F7320911C02821741F0E091A0
:100940001B02F0E0EE5FFD4F958F80931B02FF913D
:10095000EF919F918F912F910F900FBE0F901F904D
:1009600018958081F4CF1F920F920FB60F92112429
:100970002F933F938F939F93AF93BF938091F001F9
:100980009091F101A091F201B091F3013091EF014A
:1009900023E0230F2D3758F50196A11DB11D20939B
:1009A000EF018093F0019093F101A093F201B093D5
:1009B000F3018091F4019091F501A091F601B091BD
:1009C000F7010196A11DB11D8093F4019093F501EB
:1009D000A093F601B093F701BF91AF919F918F91D2
:1009E0003F912F910F900FBE0F901F90189526E802
:1009F000230F0296A11DB11DD2CF1F920F920FB6E9
:100A00000F9211242F933F934F935F936F937F9394
:100A10008F939F93AF93BF93EF93FF93E091020166
:100A2000F09103010995FF91EF91BF91AF919F91D3
:100A30008F917F916F915F914F913F912F910F9087
:100A40000FBE0F901F9018951F920F920FB60F9226
:100A500011242F933F934F935F936F937F938F93C3
:100A60009F93AF93BF93EF93FF93E0910001F091B9
:100A700001010995FF91EF91BF91AF919F918F91E6
:100A80007F916F915F914F913F912F910F900FBE8A
:100A90000F901F9018951F920F920FB60F9211246E
:100AA0002F933F934F935F936F937F938F939F9376
:100AB000AF93BF93EF93FF938091B900887F803607
:100AC00009F44AC0F0F5883209F4A7C018F580315E
:100AD00009F49BC0B8F4882309F4F9C0883009F4FC
:100AE00094C0FF91EF91BF91AF919F918F917F91B2
:100AF0006F915F914F913F912F910F900FBE0F908B
:100B00001F901895883109F488C0803251F780937E
:100B1000C80114C0803409F49DC040F48033B9F397
:100B20008833F9F68093C80185ECB0C0803509F4AC
:100B300085C0883509F496C0883499F60E9423044C
:100B4000D0CF883909F48CC038F5883729F050F4B3
:100B5000883611F0803729F683E08093C90110921E
:100B6000C70157C0883809F47BC0803919F0803834
:100B700009F0B7CF8091C701803208F071C0E091D1
:100B8000C70181E08E0F8093C7018091BB00F0E028
:100B9000E955FE4F80833DC0803B39F0E0F4803A58
:100BA00009F479C0883A09F09CCF84E08093C901A8
:100BB0001092A6011092A501E091FA01F091FB01BB
:100BC00009958091A50181110FC081E08093A50155
:100BD0001092850109C0803C09F4A6CF883C09F435
:100BE000A3CF883B09F07DCFE091A60181E08E0F75
:100BF0008093A601F0E0EB57FE4F80818093BB000D
:100C00009091A6018091A50129C08091EE01809369
:100C1000BB0085EC8093BC0064CF9091ED01809186
:100C2000EC01981758F5E091ED0181E08E0F80936B
:100C3000ED01F0E0E453FE4F8081E9CFE091ED015A
:100C400081E08E0F8093ED018091BB00F0E0E453D2
:100C5000FE4F80839091ED018091EC019817C8F2CE
:100C600085E8D8CFE091ED0181E08E0F8093ED0112
:100C70008091BB00F0E0E453FE4F80838091CB0174
:100C800081115CCF81E08093CA0184EA8093BC002B
:100C90001092C90126CF85EC8093BC001092C90147
:100CA0008091C701803230F4E091C701F0E0E9554E
:100CB000FE4F10826091C70170E0E091F801F09161
:100CC000F90187EA91E009951092C7010ACF1092C5
:100CD000C80134CF1F920F920FB60F921124CF92FA
:100CE000DF92EF92FF920F931F932F933F934F93B7
:100CF0005F936F937F938F939F93AF93BF93CF93A4
:100D0000DF93EF93FF9378948DEE95E890938500B1
:100D10008093840081E080935E0180933D01109276
:100D2000FD011092FC016091AB027091AC02611563
:100D3000710561F0FB0101900020E9F73197AF01E7
:100D4000461B570B8FE992E00E942C03D091FC01C7
:100D5000D13208F094C0C0913D010E9476026B012F
:100D60007C018091C901811165C082E08093C90135
:100D700081E08093CB018FEF8093C8011092ED0149
:100D8000D093EC01AEE3B1E0ECECF1E080E0D813FD
:100D900095C01092EE018091EE01CC0FC82BC0934C
:100DA000EE018091CA01813009F08CC01092CA0115
:100DB0000E9476026B017C018091EE018093BB0062
:100DC0008091800190918101A0918201B091830175
:100DD000892B8A2B8B2B99F00E947602009180013F
:100DE0001091810120918201309183016C197D095C
:100DF0008E099F090617170728073907E0F1809128
:100E0000BC0083FDD9CF85EC8093BC000E947602A4
:100E10006B017C018091C901823009F455C0809139
:100E2000C8018F3F61F18091C801803241F180910A
:100E3000C80125C08091800190918101A09182011B
:100E4000B0918301892B8A2B8B2B09F48ACF0E94C6
:100E500076020091800110918101209182013091F0
:100E600083016C197D098E099F090617170728074A
:100E7000390708F076CF80917F010E94E10210923D
:100E8000FD011092FC0110925E01FF91EF91DF9144
:100E9000CF91BF91AF919F918F917F916F915F9112
:100EA0004F913F912F911F910F91FF90EF90DF9005
:100EB000CF900F900FBE0F901F9018959D9191931A
:100EC0008F5F65CF85EEA0CF8091800190918101E9
:100ED000A0918201B0918301892B8A2B8B2B09F47D
:100EE00099CF0E947602009180011091810120919A
:100EF0008201309183016C197D098E099F090617C3
:100F000017072807390708F085CFB5CF10920502DB
:100F10001092040288EE93E0A0E0B0E08093060215
:100F200090930702A0930802B093090225E131E0F3
:100F3000309303022093020225EC30E030930F023D
:100F400020930E0224EC30E0309311022093100223
:100F500020EC30E0309313022093120221EC30E0B9
:100F6000309315022093140222EC30E030931702E4
:100F70002093160226EC30E03093190220931802D9
:100F800010921B0210921C0210921D0210921E025F
:100F90001092A2021092A1028093A3029093A40245
:100FA000A093A502B093A60287E291E09093A002DD
:100FB00080939F021092AC021092AB021092AE028C
:100FC0001092AD021092B0021092AF0290E080E059
:100FD0000E94C6032091AB023091AC02811113C074
:100FE0002115310519F0C9010E94470A1092AC027F
:100FF0001092AB021092B0021092AF021092AE02A9
:101000001092AD0208951092B0021092AF0266E302
:1010100071E0C9010C94960B789484B5826084BD0C
:1010200084B5816084BD85B5826085BD85B58160EC
:1010300085BD80916E00816080936E00109281006A
:101040008091810082608093810080918100816025
:1010500080938100809180008160809380008091E6
:10106000B10084608093B1008091B0008160809372
:10107000B00080917A00846080937A0080917A0039
:10108000826080937A0080917A00816080937A00F8
:1010900080917A00806880937A001092C10061E0AC
:1010A0008DE00E94450260E08CE00E94450260E015
:1010B0008BE00E94450260E08AE00E94450260E009
:1010C00089E00E94450260E088E00E944502F894B1
:1010D00010928000109281008DEE95E8909385002B
:1010E000809384008091810085608093810080914D
:1010F0006F00816080936F0078942BE833E0309329
:1011000003012093020180916900837F84608093B2
:101110006900E99A309301012093000180916900F0
:101120008C7F816080936900E89A1092FF01109291
:10113000FE011092FD011092FC010E94C3028DE895
:1011400090E09093FB018093FA018EE890E09093F9
:10115000F9018093F80184E08093BA008DEB93E06D
:101160009093010280930002E0911202F091130229
:1011700082E08083E0910E02F0910F021082E091F4
:101180001002F09111028FEC808310921A02E0910C
:101190001602F091170286E08083E0911402F0912C
:1011A0001502808180618083E0911402F091150224
:1011B000808188608083E0911402F0911502808123
:1011C00080688083E0911402F091150280818F7D08
:1011D0008083C1E1D1E000E010E0609104017091F2
:1011E00005018DE00E9417029CE0E92E91E0F92EA6
:1011F000F70181917F010E94EE01892B09F058C00F
:1012000085E391E00E94F403CE15DF0589F789E3B9
:1012100091E00E94F4030E9476024B015C0184EF8E
:10122000C82EDD24D394E12CF12C0E94760268199B
:1012300079098A099B09683E734081059105A8F3E5
:10124000F1E0CF1AD108E108F10828EE820E23E080
:10125000921EA11CB11CC114D104E104F10429F7B0
:1012600090E080E00E94C6032091AB023091AC0276
:10127000811121C02115310519F0C9010E94470AC9
:101280001092AC021092AB021092B0021092AF0218
:101290001092AE021092AD020115110509F49DCF16
:1012A0000E942201882309F498CF0E94000095CF64
:1012B00087E391E0A7CF1092B0021092AF0266E3ED
:1012C00071E0C9010E94960BE7CF8091AB0290912B
:1012D000AC02009711F00C94470A08952F923F92A8
:1012E0004F925F926F927F928F929F92AF92BF9236
:1012F000CF92DF92EF92FF920F931F93CF93DF93E2
:10130000CDB7DEB7CA1BDB0B0FB6F894DEBF0FBE3E
:10131000CDBF09942A88398848885F846E847D848B
:101320008C849B84AA84B984C884DF80EE80FD808D
:101330000C811B81AA81B981CE0FD11D0FB6F89403
:10134000DEBF0FBECDBFED010895EE0FFF1F05906C
:10135000F491E02D09940F931F93CF93DF93823084
:10136000910510F482E090E0E091B302F091B402B4
:1013700030E020E0B0E0A0E0309799F4211531058D
:1013800009F44AC0281B390B24303105D8F58A816D
:101390009B816115710589F1FB0193838283FE01B5
:1013A00011C0408151810281138148175907E0F033
:1013B0004817590799F4109761F012960C931297F9
:1013C00013961C933296CF01DF91CF911F910F910D
:1013D00008950093B3021093B402F4CF21153105A0
:1013E00051F04217530738F0A901DB019A01BD0102
:1013F000DF01F801C1CFEF01F9CF9093B4028093E0
:10140000B302CDCFFE01E20FF31F819391932250DF
:10141000310939832883D7CF2091B1023091B202AC
:10142000232B41F420910801309109013093B2023D
:101430002093B10220910601309107012115310559
:1014400041F42DB73EB740910A0150910B01241B86
:10145000350BE091B102F091B202E217F307A0F46C
:101460002E1B3F0B2817390778F0AC014E5F5F4FFA
:101470002417350748F04E0F5F1F5093B202409378
:10148000B102819391939FCFF0E0E0E09CCFCF93A6
:10149000DF930097E9F0FC01329713821282A0914A
:1014A000B302B091B402ED0130E020E01097A1F456
:1014B00020813181820F931F2091B1023091B202BD
:1014C0002817390709F061C0F093B202E093B10226
:1014D000DF91CF910895EA01CE17DF07E8F54A8141
:1014E0005B819E0141155105B1F7E901FB83EA8358
:1014F00049915991C40FD51FEC17FD0761F4808104
:1015000091810296840F951FE901998388838281D6
:1015100093819B838A83F0E0E0E012968D919C9109
:1015200013970097B9F52D913C911197CD01029633
:10153000820F931F2091B1023091B2022817390710
:1015400039F6309751F51092B4021092B302B0936D
:10155000B202A093B102BCCFD383C2834081518138
:10156000840F951FC817D90761F44E5F5F4F8881BC
:101570009981480F591F518340838A819B819383AE
:1015800082832115310509F0B0CFF093B402E093C6
:10159000B3029ECFFD01DC01C0CF13821282D7CFF0
:1015A000B0E0A0E0E6EDFAE00C9470098C01009741
:1015B00051F4CB010E94AB098C01C801CDB7DEB755
:1015C000E0E10C948C09FC01E60FF71F9C0122500E
:1015D0003109E217F30708F49DC0D901CD91DC91E0
:1015E0001197C617D70798F0C530D10530F3CE0153
:1015F00004978617970708F3C61BD70B2297C1934A
:10160000D1936D937C93CF010E94470AD6CF5B01A3
:10161000AC1ABD0A4C018C0E9D1EA091B302B09174
:10162000B402512C412CF12CE12C109731F5809112
:10163000B1029091B2028815990509F05CC0461676
:10164000570608F058C08091060190910701009755
:1016500041F48DB79EB740910A0150910B01841B54
:10166000950BE817F90708F055C0F093B202E09324
:10167000B102F90171836083A0CF8D919C91119784
:1016800012966C90129713967C901397A815B90533
:1016900059F56C0142E0C40ED11CCA14DB0420F1E0
:1016A000AC014A195B09DA011296159780F0628243
:1016B000738251834083D9016D937C93E114F104CB
:1016C00071F0D7011396FC93EE93129776CF229682
:1016D0008C0F9D1FF90191838083F301EFCFF0936D
:1016E000B402E093B30269CF4816590608F42C01FE
:1016F0007D01D3019ACFCB010E94AB097C010097F9
:1017000049F0AE01B8010E948D0BC8010E94470A42
:10171000870153CF10E000E050CFFB01DC0102C095
:1017200001900D9241505040D8F70895FB01DC0123
:1017300001900D920020E1F7089510E0C2E6D0E09C
:1017400004C0FE010E94A5092196C336D107C9F73E
:04175000F894FFCF3B
:101754009B029B0201000000B502800008090A0BED
:101764000C000000005801B800E500A5011601F4C2
:101774000008010000000059032C0388030203251C
:0C1784000312030303300031007E00005C
:00000001FF
