:100000000C9462000C9416030C94EF020C948A007A
:100010000C948A000C948A000C948A000C948A0038
:100020000C948A000C948A000C948A000C948A0028
:100030000C948A000C943D030C948A000C948A0062
:100040000C944D020C948A000C94BD020C949702FF
:100050000C948A000C948A000C948A000C948A00F8
:100060000C948A000C948A000000000024002700F1
:100070002A000000000023002600290000000000E4
:10008000250028002B0004040404040404040202D4
:100090000202020203030303030301020408102007
:1000A0004080010204081020010204081020000012
:1000B0000008000201000003040700000000000027
:1000C0000000980411241FBECFEFD8E0DEBFCDBFE3
:1000D00011E0A0E0B1E0EAE9F9E002C005900D927C
:1000E000AE31B107D9F721E0AEE1B1E001C01D9218
:1000F000AA3CB207E1F710E0C2E6D0E004C02197C5
:10010000FE010E94C504C136D107C9F70E946D03E4
:100110000C94CB040C940000AF92BF92CF92DF926C
:10012000EF92FF920F931F93CF93DF936C017B01AC
:100130008B01040F151FEB015E01AE18BF08C0173D
:10014000D10759F06991D601ED91FC910190F081B0
:10015000E02DC6010995892B79F7C501DF91CF9173
:100160001F910F91FF90EF90DF90CF90BF90AF90D5
:100170000895FC01538D448D252F30E0842F90E0AD
:10018000821B930B541710F0CF9608950197089592
:10019000FC01918D828D981761F0A28DAE0FBF2F5B
:1001A000B11D5D968C91928D9F5F9F73928F90E0B1
:1001B00008958FEF9FEF0895FC01918D828D981720
:1001C00031F0828DE80FF11D858D90E008958FEF5D
:1001D0009FEF0895FC01918D228D892F90E0805C26
:1001E0009F4F821B91098F739927089584E291E0B4
:1001F0000E94EA0021E0892B09F420E0822F089573
:1002000080E090E0892B29F00E94F60081110C9487
:1002100000000895FC01A48DA80FB92FB11DA35AA9
:10022000BF4F2C91848D90E001968F739927848F16
:10023000A689B7892C93A089B1898C918370806439
:100240008C93938D848D981306C00288F389E02DDA
:1002500080818F7D80830895EF92FF920F931F938B
:10026000CF93DF93EC0181E0888F9B8D8C8D981369
:100270001AC0E889F989808185FF15C09FB7F89475
:10028000EE89FF896083E889F989808183708064C1
:1002900080839FBF81E090E0DF91CF911F910F910C
:1002A000FF90EF900895F62E0B8D10E00F5F1F4F1B
:1002B0000F731127E02E8C8D8E110CC00FB607FC2A
:1002C000FACFE889F989808185FFF5CFCE010E94B8
:1002D0000A01F1CFEB8DEC0FFD2FF11DE35AFF4F1B
:1002E000F0829FB7F8940B8FEA89FB898081806246
:1002F000CFCFCF93DF93EC01888D8823B9F0AA8903
:10030000BB89E889F9898C9185FD03C0808186FDD0
:100310000DC00FB607FCF7CF8C9185FFF2CF80811F
:1003200085FFEDCFCE010E940A01E9CFDF91CF9189
:100330000895833081F028F4813099F08230A9F05B
:1003400008958730A9F08830C9F08430B1F48091E5
:1003500080008F7D03C0809180008F778093800024
:10036000089584B58F7784BD089584B58F7DFBCFC4
:100370008091B0008F778093B00008958091B00095
:100380008F7DF9CFCF93DF93282F30E0F901E2552D
:10039000FF4F8491F901E656FF4FD491F901EA57D6
:1003A000FF4FC491CC23A1F081110E949901EC2F41
:1003B000F0E0EE0FFF1FEE58FF4FA591B491EC91C6
:1003C000ED2381E090E009F480E0DF91CF91089582
:1003D00080E090E0FACFCF93DF9390E0FC01E65607
:1003E000FF4F24918A579F4FFC0184918823D1F0BD
:1003F00090E0880F991FFC01E859FF4FA591B49137
:10040000FC01E458FF4FC591D49161110EC09FB714
:10041000F8948C91E22FE0958E238C932881E2232F
:10042000E8839FBFDF91CF9108958FB7F894EC9147
:10043000E22BEC938FBFF6CF08958BE00E94C201B0
:100440000197D9F08CE00E94C2010197B1F08AE0D7
:100450000E94C201019789F089E00E94C2010197C0
:1004600061F088E00E94C201019739F08091040197
:1004700090910501892B31F0089510920501109299
:100480000401089580912301811106C081E090E06C
:10049000909305018093040108951F920F920FB667
:1004A0000F9211242F933F938F939F93AF93BF93FA
:1004B0008091C6019091C701A091C801B091C90176
:1004C0003091C50123E0230F2D3758F50196A11D6A
:1004D000B11D2093C5018093C6019093C701A093DD
:1004E000C801B093C9018091C1019091C201A0914E
:1004F000C301B091C4010196A11DB11D8093C1013A
:100500009093C201A093C301B093C401BF91AF9176
:100510009F918F913F912F910F900FBE0F901F9041
:10052000189526E8230F0296A11DB11DD2CF1F9268
:100530000F920FB60F9211242F933F934F935F9317
:100540006F937F938F939F93AF93BF93EF93FF939B
:1005500084E291E00E940A01FF91EF91BF91AF9177
:100560009F918F917F916F915F914F913F912F91CB
:100570000F900FBE0F901F9018951F920F920FB6FD
:100580000F9211242F938F939F93EF93FF93E091FA
:100590003401F09135018081E0913A01F0913B0105
:1005A00082FD1BC0908180913D018F5F8F732091F0
:1005B0003E01821741F0E0913D01F0E0EC5DFE4F1D
:1005C000958F80933D01FF91EF919F918F912F9196
:1005D0000F900FBE0F901F9018958081F4CF1F923F
:1005E0000F920FB60F9211242F933F934F935F9367
:1005F0006F937F938F939F93AF93BF93EF93FF93EB
:10060000E0910201F09103010995FF91EF91BF91F3
:10061000AF919F918F917F916F915F914F913F919A
:100620002F910F900FBE0F901F9018951F920F9251
:100630000FB60F9211242F933F934F935F936F93B5
:100640007F938F939F93AF93BF93EF93FF93E0912B
:100650000001F09101010995FF91EF91BF91AF91D8
:100660009F918F917F916F915F914F913F912F91CA
:100670000F900FBE0F901F9018951F920F920FB6FC
:100680000F9211242F933F934F935F936F937F9318
:100690008F939F93AF93BF93EF93FF938DEE95E866
:1006A000909385008093840045E050E06EE171E016
:1006B00084E291E00E948C00FF91EF91BF91AF9195
:1006C0009F918F917F916F915F914F913F912F916A
:1006D0000F900FBE0F901F901895789484B582608C
:1006E00084BD84B5816084BD85B5826085BD85B5D6
:1006F000816085BD80916E00816080936E00109254
:1007000081008091810082608093810080918100CE
:10071000816080938100809180008160809380005F
:100720008091B10084608093B1008091B0008160BD
:100730008093B00080917A00846080937A008091E9
:100740007A00826080937A0080917A008160809341
:100750007A0080917A00806880937A001092C100BC
:1007600061E08DE00E94EB0160E08CE00E94EB0113
:1007700060E08BE00E94EB0160E08AE00E94EB0108
:1007800060E089E00E94EB0160E088E00E94EB01FC
:10079000F89410928000109281008DEE95E890936D
:1007A0008500809384008091810085608093810022
:1007B00080916F00816080936F0078942DE132E02A
:1007C000309303012093020180916900837F84604C
:1007D00080936900E99A3093010120930001809190
:1007E00069008C7F816080936900E89AE091340110
:1007F000F091350182E08083E0913001F091310188
:100800001082E0913201F09133018FEC80831092DD
:100810003C01E0913801F091390186E08083E0915C
:100820003601F0913701808180618083E09136014B
:10083000F0913701808188608083E0913601F091EA
:100840003701808180688083E0913601F091370123
:1008500080818F7D80839BEB492E90E0592E27EA83
:10086000622E20E0722E33E9C32E30E0D32E4DE10C
:10087000E42E41E0F42E50E0A52E50E0B52E882461
:100880008394912C84E291E00E94EA0018161906E4
:1008900064F484E291E00E94C800809323018111F6
:1008A0003DC09092050180920401C0910401D09155
:1008B0000501F2018491F3011491F60104910023E2
:1008C000A1F081110E949901E02FF0E0EE0FFF1FCF
:1008D000E458FF4FA591B4918FB7F8949C91C11142
:1008E00025C0109519231C938FBFC8E1D1E00EE1FC
:1008F00011E089910E94C201F80181938F01EC16E9
:10090000FD06B9F7A114B10409F4BCCF0E94F600AA
:10091000882309F4B7CF0E940000B4CF813009F0DA
:10092000C4CF1092050110920401BFCF192BDBCF69
:10093000E4E2F1E01382128288EE93E0A0E0B0E0FE
:1009400084839583A683B7838AE091E09183808333
:1009500085EC90E09587848784EC90E09787868784
:1009600080EC90E0918B808B81EC90E0938B828B7C
:1009700082EC90E0958B848B86EC90E0978B868B55
:10098000118E128E138E148E0895EE0FFF1F059098
:0A099000F491E02D0994F894FFCFD4
:10099A001C021C020100000000002C018C00B9009E
:0E09AA007901EA00C800DC0008090A0B0C0005
:00000001FF
